:020000040800F2
:10000000B0040020B51B0008891A00088B1A0008EC
:100010008D1A00088F1A0008911A000800000000CD
:10002000000000000000000000000000931A00081B
:10003000951A000800000000971A0008991A000895
:10004000E11B0008E51B0008E91B0008ED1B000888
:10005000F11B0008F51B0008F91B0008FD1B000838
:10006000011C0008051C0008091C00080D1C0008E4
:10007000111C0008151C0008191C00081D1C000894
:10008000211C0008251C0008291C00082D1C000844
:10009000311C0008351C0008391C00083D1C0008F4
:1000A000411C0008451C0008491C00084D1C0008A4
:1000B000511C0008551C0008591C00085D1C000854
:1000C000611C0008651C0008691C00086D1C000804
:1000D000711C0008751C0008791C00087D1C0008B4
:1000E0009D1A0008811C0008851C0008891C000856
:1000F0008D1C0008911C0008951C0008991C000824
:100100009D1C0008A11C0008A51C0008A91C0008D3
:10011000AD1C0008B11C0008B51C0008B91C000883
:10012000BD1C0008C11C0008C51C0008C91C000833
:10013000CD1C0008D11C0008D51C0008D91C0008E3
:10014000DD1C0008E11C0008E51C0008E91C000893
:10015000ED1C0008F11C0008F51C0008F91C000843
:10016000FD1C0008011D0008051D0008091D0008F0
:100170000D1D0008111D0008000000000000000017
:10018000151D0008191D000838B5040001D1012013
:1001900032BD00F0CBF818B900F0C4F800F0C4FB91
:1001A000FFE702206870211D206800F0A7F90120F8
:1001B0002873A870E87028716871A871E8712872B6
:1001C0006872A872E8726870002032BD38B5040009
:1001D00001D1012032BD00F0A9F818B900F0A2F851
:1001E00000F004FCDDE770B500F092F809B9027880
:1001F0000FE0042908BF42780BD0082908BF827895
:1002000007D00C2908BFC27803D010290CBF02798F
:100210004279012A01D0012070BD11B90222027079
:1002200014E0042902D1022242700FE0082902D111
:10023000022282700AE00C2902D10222C27005E07B
:10024000102907BF022202710223437100F044F813
:1002500000F04BF818BF904208D088421FBFDFF86B
:10026000BC50A842DFF8B860B04201D100F01FF8DE
:1002700024689C4218BFB4F1804F0BD000F024F8E2
:100280001CBF1F4B9C4205D000F01BF81CBF9442C2
:100290008C4208D100F010F818BFB1F5803F04D0AF
:1002A00000F01EF801E000F012F8002070BD456C6F
:1002B00045F4004545647047A16817480140062988
:1002C00070471048844270470C4884427047216848
:1002D00041F00101216070472068012200F0E3BA7B
:1002E000206840F00100206070472068024B064AF9
:1002F0000649984270470000002C0140000400406D
:1003000000080040000C0040003401400040014063
:10031000044604F13E00704707000100004401401C
:1003200000480140002129702046704704F13C0537
:100330006878704738B500F07EF801D1022032BDF0
:10034000012084F83C0052B1042A19D0082A29D08F
:100350000C2A38D0102A48D0142A57D067E02068D9
:1003600000F022F92168886940F0080088618869F6
:1003700020F0040088618A69286902438A6156E096
:10038000206800F052F92068816941F400618161C0
:10039000816921F48061816181692A6941EA0221D0
:1003A000816144E0206800F079F92168C86940F073
:1003B0000800C861C86920F00400C861CA692869DA
:1003C0000243CA6133E0206800F0A0F92068C169E7
:1003D00041F40061C161C16921F48061C161C169F9
:1003E0002A6941EA0221C16121E0206800F0B5F9E3
:1003F0002168486D40F008004865486D20F0040011
:1004000048654A6D286902434A6510E0206800F09B
:10041000CEF92068416D41F400614165416D21F4E0
:1004200080614165416D2A6941EA022141650020F0
:1004300084F83C0032BD04460D4694F83C00012887
:10044000704738B500F04EF801D1022032BD0120CE
:10045000207002226270DFF8B4032A6893680340B8
:1004600093600868020018BF10282DD0202818BFFC
:10047000302829D0402823D0502816D0602818D002
:10048000702803D0B0F5005F07D021E000F025F818
:100490002868816841F0770105E000F01EF82868BF
:1004A000816841F48041816012E000F012F850212F
:1004B0000BE0CA684968286800F0D1F9602104E0BF
:1004C00000F007F8402100E00146286800F0D9F963
:1004D0000EE0CA6849682868B2E1CB684A68896852
:1004E0002868D6E1054605F13C04207801287047CC
:1004F0000120607000212170002032BD2DE9F04301
:10050000DFF80C73D0F800C0DFF80833DFF80843D9
:10051000DFF80853DFF80863DFF808E3DFF8088343
:10052000DFF80893B84218BFB0F1804F07D04845B4
:1005300018BF404503D0704518BFB0420ED14A687D
:10054000B8422CF0700C18BFB0F1804F42EA0C0C8E
:100550000CD048451CBF4045704507D0B04218BF7D
:10056000A84203D0A04218BF984204D1CA682CF414
:10057000407C42EA0C0C4A692CF0800C42EA0C02E6
:100580000260B8428A68C26218BFB0420A688262DA
:1005900004D0A8421CBFA042984201D1096901635E
:1005A00001224261BDE8F0832DE9F041026ADFF8E3
:1005B0006082DFF86CE2DFF86072DFF860C2520838
:1005C00052000262066A44688569DFF864220B689B
:1005D00026F0020615408A6816431D43404518BFA1
:1005E00070458C4B04D060451CBFB84298420DD179
:1005F000CA6826F008061643404518BF704526F025
:10060000040605D0604518BFB84201D0984205D114
:100610004B698A6924F440741C4314434460856127
:10062000496841630662BDE8F081F0B5026A22F0D4
:1006300010020262056A436884697E4A0E681440AB
:100640008A6844EA062425F0200545EA0215704E22
:10065000734AB04218BF904208D1CF6825F0800598
:1006600045EA0715B04225F040050AD090421CBF6C
:100670006A4A904205D0684EB0421CBF654A90421B
:1006800006D14E698A6923F44063164343EA860320
:1006900043608461496881630562F0BDF0B5026A18
:1006A000634B22F480720262066A4468C5690A6874
:1006B00026F400761D408B6846EA03261543544B0A
:1006C000574A984218BF904208D1CF6826F4006676
:1006D00046EA0726984226F480660AD090421CBF5C
:1006E0004E4A904205D04C4B98421CBF494A90421A
:1006F00006D14B698A6924F44054134344EA031435
:100700004460C5614968C1630662F0BD70B5026AA4
:1007100022F480520262036A4468C569454A00F0C7
:100720006DF823F4005343EA0233B0421CBF3C4A45
:10073000904207D0394EB0421FBF374A9042354EE3
:10074000B04204D14A6924F4804444EA82144460EB
:10075000C56149680164036270BD70B5026A364BB9
:1007600022F480320262046A4568466D0A681E40BF
:1007700016438B68264A24F4003444EA034490422A
:100780001CBF274B984207D0244A90421FBF224BE0
:100790009842204A904204D14A6925F4803545EABE
:1007A00002254560466549688165046270BD70B583
:1007B000026A22F480120262036A4468456D1F4A8D
:1007C00000F01CF823F4001343EA0253B0421CBFAC
:1007D000134A904207D0114EB0421FBF0E4A9042BA
:1007E0000C4EB04204D14A6924F4802444EA8224A5
:1007F000446045654968C165036270BD0E68154077
:1008000045EA06258A68024E704700008800FEFF10
:10081000002C0140004801400044014000400140DC
:1008200000340140000C004000080040000400407B
:100830008CFFFEFFFF8CFFFE8FFFFEFFFF8FFFFE92
:1008400010B5036A046A64086400046223F00A03B2
:10085000846924F0F00444EA021484612EE010B5A7
:10086000036A23F0100303628369046A23F470436C
:1008700043EA023324F0A004836144EA01140462D1
:1008800010BD826822F07002114341F007018160BF
:10089000704710B5846824F47F442143114341EA32
:1008A0000321816010BD10B501F01F01036A01240E
:1008B0008C40A343036202FA01F1036A1943016207
:1008C00010BD30B4002513E050F8042BD30744BF0B
:1008D000A9F101039A18091F042942F8045BFAD20E
:1008E00013468C0744BF15809B1CC90748BF1D7069
:1008F00050F8041B0029E7D130BC7047374881B05D
:10090000816841F001018160816801F0010100917D
:100910000099026842F080520260006800F0805046
:100920000090009801B0704781B000682B49B0F189
:10093000804F08D1086840F001000860096801F0A4
:10094000010100910AE0264A904208D1886840F4EB
:1009500080308860886800F480300090009801B092
:10096000704710B586B0044614220021684600F096
:100970003EF820681B49B0F1804F10D1086840F064
:10098000010008600222096801F00101059120219F
:10099000059800F01DF84FF09040012112E0104A38
:1009A000904213D1086840F00200086002220968F2
:1009B00001F0020105914FF4804105980A4800F0CA
:1009C00007F80E210491694600F032F806B010BD18
:1009D000009101920021029103917047581002404A
:1009E000004001404C10024000040048704710B520
:1009F000044610460A460146204600F015F92046F6
:100A000010BD30B40EE00268436802440830DC07D1
:100A100044BFA9F10104E31852F8045B43F8045BF6
:100A2000091FF9D150F8041B0029ECD130BC7047E4
:100A30002DE9F84F4FF00009704A714B4FF00F0845
:100A400005460E4634E06F4CA54214BF0724062429
:100A50008C406D493C4341F82C40C143146801EA85
:100A6000040C7468E40348BF40EA0C0CC2F800C0F0
:100A7000546801EA040C7468A40348BF40EA0C0CF3
:100A8000C2F804C0946801EA040C7468E40248BF28
:100A900040EA0C0CC2F808C0D46801EA040C716882
:100AA000890248BF40EA0C0CC2F80CC009F10109E8
:100AB000316831FA09F000F09780012404FA09F452
:100AC00014EA0100F2D04FEA490C032101FA0CF1BB
:100AD0006FEA010E7168E443012918BF022903D0AF
:100AE000112918BF122910D1A968F7680EEA01016F
:100AF00007FA0CF73943A96069687768C7F30017EC
:100B0000214007FA09F739436960716801F003076A
:100B1000032F07D1EF6AC1F3C0013C4001FA09F18C
:100B20000C43EC62E968B4680EEA010104FA0CF4C3
:100B30002143E9604FEA89017468022C18BF122C26
:100B400012D14FEAD90405EB840401F01C07D4F854
:100B500020A008FA07FB2AEA0B0AD6F810B00BFA15
:100B600007F747EA0A0727622C680EEA0407347978
:100B700004F0030404FA0CF43C432C607468E400B1
:100B800094D51C6844F001041C604FEA990C1C6861
:100B900004F00104009401F00C01009C1A4C54F87C
:100BA0002C4008FA01F724EA0707B5F1904F08BF77
:100BB000002418D0154CA54208BF012413D0144CB2
:100BC000A54208BF02240ED0124CA54208BF032440
:100BD00009D0114CA54208BF042404D00F4CA542F3
:100BE0007FF431AF052433E7BDE8F18F0C4A136879
:100BF00003421CBF106000F015B8704700040140AC
:100C0000601002400018004808000140000400483D
:100C100000080048000C004800100048001400487C
:100C2000140401407047000062F30F2262F31F4278
:100C3000401810F0030308D0C91A1FD3DB0748BFC0
:100C400000F8012D28BF20F8022D130030B41446FF
:100C50001546103928BF20E93C00FAD8490728BFBB
:100C600020E90C0048BF40F8042D890028BF20F877
:100C7000022D48BF00F8012D30BC7047C91818BFBD
:100C800000F8012DCB0728BF00F8012D70470000A8
:100C90002DE9FC47050065D0DFF87876DFF884663B
:100CA000BC68F86800F003082878C10604F00C045A
:100CB00048D524B10C2C08BFB8F1010F2CD13868ED
:100CC000810702D5A86900284CD0396808074EBFB3
:100CD000396871680909286A01F0F001814206D279
:100CE00000F0DEFA00283DD100F0F5F907E000F051
:100CF000F2F924B9286A00F0D3FA002832D100F0C2
:100D000086FABA6800F079FADFF81006006800F099
:100D10001DFB010016D0D8E1A86928B3396841F05D
:100D20000101396000F034FB81463868810707D43F
:100D300000F02EFBA0EB09000328F6D30320C4E14A
:100D400000F0C9F92878C10756D5082C04D00C2C1E
:100D500008BFB8F1030F18D1386881034CD5686813
:100D6000002849D10120B0E13868400840003860CF
:100D700000F00EFB814638688107E3D500F008FBE0
:100D8000A0EB09000328F6D3D8E76868B0F5803FE8
:100D900004D1386840F48030386011E0B0F5A02FFD
:100DA000386806D140F480203860396841F48031D9
:100DB00005E020F480303860396821F48021396002
:100DC000686860B100F0E4FA81463868810313D4A2
:100DD00000F0DEFAA0EB09006528F6D3AEE700F0DC
:100DE000D7FA81463868810306D500F0D1FAA0EB26
:100DF00009006528F6D3A1E72878810713D5042CCC
:100E000004D00C2C08BFB8F1020F22D1386841057C
:100E100002D5E8680028A5D07868296920F0F85044
:100E200040EA016078602878010743D568690028A6
:100E3000706830D040F00100706000F0A9FA804680
:100E40007068810736D400F0A3FA00F040F9F7D3B8
:100E500074E7E86878B1396841F48071396000F06E
:100E600097FA804638684105D6D400F091FA00F030
:100E70002EF9F7D362E7386820F48070386000F00C
:100E800087FA804638684105CDD500F081FA00F038
:100E90001EF9F7D352E740084000706000F078FA7E
:100EA00080467068810705D500F072FA00F00FF9EE
:100EB000F7D343E72878410767D5B86DC1004FF0F5
:100EC00000080AD4B86D40F08050B8654FF00108B2
:100ED000B86D00F0805000900098DFF84C94D9F87D
:100EE0000000C10513D4D9F8000040F48070C9F89F
:100EF000000000F04DFA8246D9F80000C10506D482
:100F000000F046FAA0EB0A000328F5D316E7A8681C
:100F1000012804D1306840F00100306010E005285D
:100F2000306806D140F004003060316841F00101C2
:100F300005E0400840003060316821F00401316074
:100F4000A86841F2893960B100F022FA824630681F
:100F5000810713D400F01CFAA0EB0A004845F6D331
:100F6000ECE600F015FA82463068810706D500F0FD
:100F70000FFAA0EB0A004845F6D3DFE6B8F1000F00
:100F800003D0B86D20F08050B865A86A002800F042
:100F90009B80022878D1F868EA6A00F00301914248
:100FA00001BF00F070012A6B521EB1EB021F1ED16F
:100FB0006A6B00F4FE41B1EB022F18D1A96B07292F
:100FC0000CBF0021012100F400328A420FD1EA6BEC
:100FD000520800F4C001521EB1EB425F07D1296CE8
:100FE000490800F0C060491EB0EB416F48D00C2C9E
:100FF0004BD03868410101D43868C1003FF5B2AE2A
:10100000386820F08070386000F0C2F90446386813
:10101000810105D500F0BCF9001B0328F7D38DE64C
:10102000F868DFF80813EA6A0840296B1043491E84
:1010300040EA0110EA6B696B520840EA0120296C12
:10104000521E490840EA4250491E40EA4160A96BDD
:10105000090940EA4140F860386840F08070386023
:10106000F96841F08071F96000F092F9044638683F
:10107000810129D400F08CF9001B0328F7D35DE629
:101080003868810120D4E7E70C2C3FF46BAE386858
:1010900020F080703860396811F0205F03D1F86863
:1010A00080088000F860F968DFF884020140F96088
:1010B00000F06EF904463868810105D500F068F942
:1010C000001B0328F7D339E60020BDE8F687A0EB24
:1010D000080003287047386840F008003860396815
:1010E000286A21F0F001014339607968E86921F448
:1010F0007F4141EA0021796070472DE9F041040009
:10110000884658D0DFF82C62306800F00700404570
:1011100009D23168C90848EAC1013160306800F07D
:101120000700404547D12078DFF8E851C1072AD5AC
:101130006068032802D129688A0108E0022802D1E8
:1011400029688A0303E00028296802D18A0702D4AB
:1011500031E04A052FD5A968890840EA8100A860D6
:1011600000F016F90746A868616800F00C00B0EBC3
:10117000810F08D000F00CF9C01B41F28931884280
:10118000F1D3032037E02078810705D5AA68A0684D
:1011900022F0F0020243AA60316801F0070188459D
:1011A0000BD23068C00848EAC0003060316801F0F6
:1011B0000701414501D001201DE02078410705D5F8
:1011C000AA68E06822F4E0620243AA602178080776
:1011D00006D5A968206921F4605141EAC001A960DF
:1011E00000F015F8AA6800F008F8BDE8F0414B4897
:1011F000006800F0ABB8BDE8F0814F49C2F30312BC
:10120000895C454A01F01F01C8401060704770B505
:10121000404A4A4B9068D6680025002110F00C0027
:1012200006F00306464C03D00C2812D1012E1AD129
:1012300015682E0704D43A4D2E68C6F3032502E044
:101240001568C5F303153F4E56F8255048B9294691
:1012500024E0042808BF214620D008281ED11946C2
:101260001CE00C281AD1D06800F00300022803D03B
:10127000032808BF1D4600E02546D168D068D26823
:10128000C0F306204543C1F30210C2F34161401C84
:10129000491CB5FBF0F04900B0FBF1F1084670BD08
:1012A0007CB5294E054630680024C10002D500F007
:1012B00075F80EE0306840F080503060316801F021
:1012C00080510091009800F069F8316821F0805158
:1012D0003160B0F5007F04D1802D0CD9A12D09D348
:1012E00004E0802D88BF032405D801D1022402E048
:1012F000702D00D101240F480168C90844EAC101DA
:101300000160006800F00700A04201D0012076BD16
:10131000002076BD001002400C00002008000020D4
:101320009410024090100240007000408C809DF9A3
:10133000FFFFEEFE00200240781A000800127A003B
:101340000024F400CC1A00085810024070B50E4E6C
:10135000044630780025A0B14FF47A710B4AB1FBF6
:10136000F0F11068B0FBF1F000F09DF848B9102CD6
:1013700007D2002221464FF0FF3000F06BF8B46036
:1013800000E00125284670BD000000200C00002070
:1013900001484068704700BF00000020DFF874007B
:1013A000006800F4C060704710B5DFF86810B0F551
:1013B000007F086800F4C06019D1B0F5007F1FD02D
:1013C0000868DFF85420DFF8544020F4C06040F48F
:1013D000007000F017F800E0401E4A69530501D57F
:1013E0000028F9D1486941050AD5032010BDB0F5A0
:1013F000806F05D0086820F4C06040F48060086009
:10140000002010BD0860322013684343B3FBF4F0A2
:10141000401C7047007000400C00002040420F004C
:101420000901020002D42A4881547047294B02F076
:101430000F021A4402F8041C7047274B19684FF634
:10144000FF020002114000F4E06008432349084312
:101450001860704770B5204B1C68C4F30223012448
:10146000C3F10705052D2EBF0F2504FA05F56D1EE6
:101470001E1D072E34BF0023DB1E2940994004FAAD
:1014800003F3BDE870405B1E1A401143C8E700003B
:10149000010007D4012200F01F01114B8A404009CE
:1014A00043F82020704710B5401EB0F1807F01D373
:1014B000012010BD0B4C60600F214FF0FF30FFF793
:1014C000AFFF0021A16007202060002010BD0000B8
:1014D00000E400E018ED00E00CED00E00000FA058B
:1014E00000E100E010E000E02DE9F04399B000F0E9
:1014F000E1F900F099F91422002101A8FFF777FA29
:101500009248934E016841F0040101604FF4005489
:10151000026802F0040200924FF4805500990268BC
:1015200042F001020260036803F001030093009996
:101530000268884942F0020202600022006800F05E
:10154000020000900098844802910392019401A93E
:10155000FFF76EFA002200212820FFF77BFF2820EA
:10156000FFF796FF00F05BF900F09EF900F052F9EA
:101570004FF080403060182171600022B260C820B6
:10158000F0603261B2613046FEF7FEFD0A950AA9AD
:101590003046FEF756FF3046FEF718FE0021009158
:1015A00002913046694600F095F9602103910022CE
:1015B00004920592079203A93046FEF7BBFE30461F
:1015C000FFF7CFF900F02BF900F06EF900F022F9E7
:1015D0002C2200210EA8FFF70AFA6048F0641821B7
:1015E000316500207065C821B165F06530667066B0
:1015F00006F14C00FEF7C8FD0A950AA906F14C0059
:10160000FEF71FFF06F14C00FEF7E0FD0021009100
:10161000029106F14C00694600F05CF9602000215F
:101620000390049100220691089105920792099275
:1016300003A906F14C00FEF77DFE00210E910F91EB
:10164000109111911291189113940EA906F14C006A
:1016500000F07DF906F14C00FFF783F900210091BD
:101660000091884600273E4CDFF8F8904FF09045F7
:1016700027E000F079F820F020006861606920F42C
:101680008040606119E0C82F08BF6FF0270883B061
:10169000314668464C2200F0A9F90EBC4744384652
:1016A00000F0E8F883B006F14C0168464C2200F0E7
:1016B0009DF90EBC384600F0DDF84FF4FA7000F0EA
:1016C000A1F999F800000528D3D8DFE800F0041943
:1016D00022292D38CDE7296841F4806129602868E6
:1016E00020F400602860216841F08051216020686A
:1016F00020F000502060696921F020016961BDE798
:1017000000F032F840F020006861606940F48040E9
:10171000B7E700F03BF84FF4FA7000F073F9CCE74C
:1017200000F034F86420F8E700F049F817B94FF0FA
:101730000A08ACE7C82FAAD16FF00908A7E700F0A4
:101740003EF8002F9FD14FF02808A0E74C10024030
:101750001000002000001110000800480040014067
:1017600000040048A8000020286840F48060286039
:10177000296821F400612960206840F080502060D1
:10178000216821F00051216068697047286840F4A1
:1017900080602860296821F400612960206840F099
:1017A00080502060216821F000512160686980F03C
:1017B00020006861606980F480406061704728683B
:1017C00020F480602860296841F400612960286A5B
:1017D00020F470002862286A40F480102862216892
:1017E00021F080512160206840F000502060616A43
:1017F00001F070616162606A40F000706062606A6E
:1018000040F080606062606A40F000606062322098
:1018100000F0F8B81C22002103A8FFF7E8B8102256
:1018200000210AA8FFF7E3B880B596B04422002152
:1018300005A8FFF7DCF8142200F037F801210B911E
:1018400010200590002260210C920D910F9205A8A6
:10185000FFF71EFA0F2000900021019102910391E1
:1018600004916846FFF749FC4FF40070FFF79CFDB8
:1018700017B000BD0EB410B587B004461C2200F0AE
:1018800014F8602100910022002102910492019439
:10189000694609A8FEF74EFD002109A8FEF7A3FC42
:1018A00007B010BC5DF810FB0C2200216846FFF762
:1018B0009EB80000032010B5FFF7BFFD0020FFF722
:1018C00045FD0024002814BF0124FFF717F8204627
:1018D00010BD0000F0B500F13C042278012A01D1CE
:1018E0000220F0BD01222270022363700668DFF837
:1018F000ECE07768DFF8E8C0B568764518BF664564
:1019000003D14B6827F470071F430A6827F070075C
:10191000174377600268724518BFB2F1804F0CD050
:101920002D4882421CBF2F4B9A4206D02948824242
:101930001EBF62452C4B9A4204D1886825F0800571
:10194000054395600121617000202070F0BD30B525
:1019500090F83C20012A01D1022030BD012280F8FC
:101960003C20CC688B684A6824F440741C4324F4FF
:10197000806414430B680A6924F400641C4324F453
:10198000805414434B698A6A24F400541C4324F4A1
:10199000804414438B69114A24F4702444EA0344BC
:1019A000036893421CBF0E4DAB420CD14A6A24F42B
:1019B000700444EA0254CA69096A24F0807414432A
:1019C00024F000740C435C64002280F83C2000206A
:1019D00030BD0000000C004000040040002C01401D
:1019E0000034014000080040004001404AB10000BE
:1019F00011F8013B521E00F8013B1CBF11F8013BDE
:101A0000F8E7704738B50446FFF7C2FC14F1010F40
:101A1000054602D0044801786418FFF7B9FC401B62
:101A2000A042FAD331BD00BF000000200E4801687B
:101A300041F47001016000220C49086840F0010087
:101A400008608A604FF480520B68094803400B60BD
:101A5000CA6000200B68074A23F480230B6088616A
:101A60004FF000611160704788ED00E00010024007
:101A7000FFFFF6EA08ED00E00000000000000000B3
:101A800001020304060708097047FEE7FEE7FEE7C8
:101A9000FEE770477047704700F010B806480178BD
:101AA000491C01700278062A04BF002101704FF41E
:101AB0000050FFF79BB80000A800002002484168D2
:101AC00002788A184260704700000020A08601005A
:101AD000400D0300801A060000350C0040420F0044
:101AE00080841E0000093D0000127A000024F400EA
:101AF00000366E010048E801006CDC0210B50749B1
:101B000079441831064C7C44163404E00A68081DF8
:101B1000114488470146A142F8D110BD2C000000B5
:101B20004C0000004EF68851CEF20001086840F4E7
:101B300070000860BFF34F8FBFF36F8F4FF00070DE
:101B4000E1EE100A704700007BEDFFFF9C000000F3
:101B50001000002000000000ABEEFFFF10000000AE
:101B600064000000000000200000000000F00DF8FC
:101B7000002801D0FFF7C2FFAFF300800020AFF3D1
:101B80000080FFF7B1FC00F002F80120704700F080
:101B900001B800000746384600F002F8FBE70000F5
:101BA00080B5AFF30080024A11001820ABBEFBE7FE
:101BB0002600020001488047014800472D1A00080E
:101BC000D51B00080100000000000000100000000C
:101BD00000093D00AFF30080FFF7A4FFFFF7C6FF49
:101BE000FFF7FEBFFFF7FEBFFFF7FEBFFFF7FEBF29
:101BF000FFF7FEBFFFF7FEBFFFF7FEBFFFF7FEBF19
:101C0000FFF7FEBFFFF7FEBFFFF7FEBFFFF7FEBF08
:101C1000FFF7FEBFFFF7FEBFFFF7FEBFFFF7FEBFF8
:101C2000FFF7FEBFFFF7FEBFFFF7FEBFFFF7FEBFE8
:101C3000FFF7FEBFFFF7FEBFFFF7FEBFFFF7FEBFD8
:101C4000FFF7FEBFFFF7FEBFFFF7FEBFFFF7FEBFC8
:101C5000FFF7FEBFFFF7FEBFFFF7FEBFFFF7FEBFB8
:101C6000FFF7FEBFFFF7FEBFFFF7FEBFFFF7FEBFA8
:101C7000FFF7FEBFFFF7FEBFFFF7FEBFFFF7FEBF98
:101C8000FFF7FEBFFFF7FEBFFFF7FEBFFFF7FEBF88
:101C9000FFF7FEBFFFF7FEBFFFF7FEBFFFF7FEBF78
:101CA000FFF7FEBFFFF7FEBFFFF7FEBFFFF7FEBF68
:101CB000FFF7FEBFFFF7FEBFFFF7FEBFFFF7FEBF58
:101CC000FFF7FEBFFFF7FEBFFFF7FEBFFFF7FEBF48
:101CD000FFF7FEBFFFF7FEBFFFF7FEBFFFF7FEBF38
:101CE000FFF7FEBFFFF7FEBFFFF7FEBFFFF7FEBF28
:101CF000FFF7FEBFFFF7FEBFFFF7FEBFFFF7FEBF18
:101D0000FFF7FEBFFFF7FEBFFFF7FEBFFFF7FEBF07
:0C1D1000FFF7FEBFFFF7FEBFFFF7FEBFAE
:0400000508001BD5FF
:00000001FF
